:020000040000FA
:10000000C806001081010000850100008701000082
:10001000890100008B0100008D010000000000003C
:100020000000000000000000000000008F01000040
:100030009101000000000000930100009501000004
:1000400097010000F91200006913000091130000ED
:10005000970100009D1300007D1400006115000051
:100060002516000097010000C50C00009701000054
:100070009701000097010000AD1000000111000081
:100080009701000097010000970100009701000010
:10009000970100007D0C000097010000970100000F
:1000A0009701000045040000A50B00009701000027
:1000B00097010000970100009701000097010000E0
:1000C000970100009701000097010000E916000069
:1000D00055110000970100009701000097010000F2
:1000E0009701000000F002F800F03AF80AA090E84A
:1000F000000C82448344AAF10107DA4501D100F0E3
:100100002FF8AFF2090EBAE80F0013F0010F18BF75
:10011000FB1A43F001031847B8180000D818000074
:10012000103A24BF78C878C1FAD8520724BF30C823
:1001300030C144BF04680C607047000000230024F5
:1001400000250026103A28BF78C1FBD8520728BFE7
:1001500030C148BF0B6070471FB51FBD10B510BD43
:1001600000F079F81146FFF7F7FF01F0D3FB00F03C
:1001700097F803B4FFF7F2FF03BC00F09BF8000010
:1001800008480047FEE7FEE7FEE7FEE7FEE7FEE77A
:10019000FEE7FEE7FEE7FEE703480449024A044B98
:1001A00070470000E5000000C8040010C8060010F9
:1001B000C80400104FF000020429C0F0128010F0B3
:1001C000030C00F01E80CCF1040CBCF1020F18BF30
:1001D00000F8012BA8BF20F8022BA1EB0C0100F0C6
:1001E00010B85FEAC17C24BF00F8012B00F8012B96
:1001F00048BF00F8012B70477047704770474FF0B9
:10020000000200B5134694469646203922BFA0E866
:100210000C50A0E80C50B1F12001BFF4F7AF090772
:1002200028BFA0E80C5048BF0CC05DF804EB890063
:1002300028BF40F8042B08BF704748BF20F8022BA6
:1002400011F0804F18BF00F8012B7047004870472D
:100250006404001070477546FFF7F8FFAE460500CE
:100260006946534620F00700854618B020B5FFF7D1
:1002700093FFBDE820404FF000064FF000074FF01D
:1002800000084FF0000B21F00701AC46ACE8C009B4
:10029000ACE8C009ACE8C009ACE8C0098D467047BD
:1002A00010B50446AFF300802046BDE81040FFF7CC
:1002B00060BF000001491820ABBEFEE72600020027
:1002C0004178012904D002290DD003290DD10BE07A
:1002D0000178122903D10121074A117002E002219D
:1002E000054A117005E004E003E00221024A1170A2
:1002F00000BF00BF704700000900001010B50E4895
:100300000078012817D100200B49087012200B49F2
:100310000870012048708870FF20C87004210748C9
:1003200000F09CFC05490871054801780523034A43
:10033000012000F039FF10BD2A0000102500001038
:10034000200000104178012904D002290DD0032992
:100350000DD10BE00178112903D10121074A117059
:1003600002E00221064A117005E004E003E00221E8
:10037000034A117000BF00BF704700002A00001040
:100380000900001010B50246114800EB82342368C2
:10039000C3F303400870D80F48700D48001D00EBF0
:1003A00082342368487818B123F06040486002E046
:1003B000C3F30A0048600648083000EB8234236823
:1003C0008B60001D00EB82342368CB60012010BDE0
:1003D0002040044010B51149002000F081F80022AF
:1003E0000121104600F0E6F900221221104600F02B
:1003F000E1F90A49012000F073F8002211210120DF
:1004000000F0D8F91920012181404209920002F13F
:10041000E022C2F8001100BF10BD000005002F004F
:10042000014611B1012904D101E0044803E0044868
:1004300001E0002000BF00BF704700000040044002
:10044000008004402DE9F04100243DE0214800EB0C
:1004500084352F6807F0010020B384B91E49204677
:10046000FFF790FF1C48017800F0FCFD19480838A0
:1004700000EB84352E6846F004062E6026E0012C41
:1004800010D116492046FFF77DFF1448017800F08F
:10049000C5FD1048083800EB84352E6846F0040688
:1004A0002E6013E007F0800060B1204600F0F4FBFE
:1004B0000848001F00EB84352E68F6B22E602046F7
:1004C00000F094FD601CC4B2022CBFDB00BFBDE88D
:1004D000F08100000C400440E4000010F400001023
:1004E000F0B504460D4600BF14B1012C3CD11DE00F
:1004F0003A48006840F400503849C439C1F8C40093
:100500003748006820F00700354908600846006851
:1005100040F0010008600846406820F0070048608D
:100520000846406840F0010048601EE02B48006823
:1005300040F480402949C439C1F8C4002848006902
:1005400020F00700264908610846006940F00200D3
:1005500008610846406920F0070048610846406984
:1005600040F00200486100E000BF00BF204600F0FC
:1005700093FB1C4800EB8436356001201A49086063
:100580009CB918481438406840F00E0015491439D9
:1005900048600846006940F001000861084680682C
:1005A00088600846C06887B210E01048406840F094
:1005B0000E000E4948600846006940F001000861DD
:1005C0000846806888600846C06887B202200649ED
:1005D0000860204600F00AFDF0BD0000C4C00F40D6
:1005E00000C002401440044000C0034000800440AA
:1005F0002DE9F04781460D464846FFF711FF0446B6
:1006000000270AE004F10808D8F8007007F0080095
:1006100018B9012001F0F0F8082707F008000028B9
:10062000F0D0E06900F0040000283DD0206B20F4F9
:1006300070202063206B297B40EA01402063A87B67
:10064000012804D1206B40F08040206303E0206B40
:1006500020F080402063687B012804D1206B40F0AB
:100660000040206303E0206B20F0004020632868F6
:1006700060632979687941EA0021A87941EA00415B
:10068000E87941EA0066A663297A687A41EA00219E
:10069000A87A41EA0041E87A41EA0066E66321204F
:1006A00060600120BDE8F087E06900F48060E0B39D
:1006B000206C20F470202064206C297B40EA0140EB
:1006C0002064A87B012804D1206C40F08040206485
:1006D00003E0206C20F080402064687B012804D176
:1006E000206C40F00040206403E0206C20F00040CB
:1006F0002064286860642979687941EA0021A87932
:1007000041EA0041E87941EA0066A664297A687AFC
:1007100041EA0021A87A41EA0041E87A41EA00660C
:10072000E664412060600120BCE7FFE7E06900F477
:100730008020E0B3206D20F470202065206D297B9F
:1007400040EA01402065A87B012804D1206D40F0DB
:100750008040206503E0206D20F080402065687BAC
:10076000012804D1206D40F00040206503E0206D99
:1007700020F000402065286860652979687941EAA1
:100780000021A87941EA0041E87941EA0066A665BE
:10079000297A687A41EA0021A87A41EA0041E87A98
:1007A00041EA0066E6658120606001207AE7FFE7A4
:1007B000002077E72DE9F04306461746DFF8F4C23C
:1007C000DCF80080DFF8F0C2DCF800C00CF1010CAE
:1007D00008EB6C0CBCF5007F01DBBDE8F0834FF04B
:1007E000010CDFF8D882C8F800C0002F75D141EAAB
:1007F00046314FF2FF7C01EA0C01DFF8BCC29CF8E5
:1008000000C00CF0010CBCF1000F22D1DFF8A4C233
:10081000DCF800C0BCF1000F1BD0DFF89CC2DCF894
:1008200000C04FEA6C00DFF88CC2DCF80050DFF843
:10083000908258F8202007E0401CDFF8848258F8A6
:10084000203048F820201A46B5F1000CA5F101052A
:10085000F2D1DFF864C2DCF800C0BCF1000F08D1AF
:100860004FF6FF7C4CEA014CDFF85482C8F800C018
:10087000B2E0DFF844C2DCF800C0BCF1010F20D1C7
:10088000DFF83CC2DCF800C0B1EB1C4F0CD2DFF843
:1008900030C2DCF800C04FEA1C4C4CEA014CDFF8D7
:1008A0002082C8F800C097E0DFF814C2DCF800C06E
:1008B0006FF30F0C4CEA010CDFF80482C8F800C09B
:1008C0008AE00020DFF8F0C1DCF80040DCF800C06E
:1008D000ACF1010C4FEA6C0517E088E0DFF8E0812D
:1008E00058F820C0B1EB1C4F01D244000FE0DFF8F4
:1008F000D08158F820C01FFA8CFC8C4504D94FF0E9
:10090000010C0CEB400402E0401CA842E6DD00BFF5
:10091000A8421DDDDFF8A0C19CF800C00CF0010C5E
:10092000BCF1000F08D14FF6FF7C4CEA014CDFF818
:10093000909149F820C04FE0DFF8848158F820C03A
:100940006FF30F0C4CEA010CC14649F820C043E09C
:10095000DFF86C8158F8202004F0010CBCF1000F86
:1009600004D14FEA014C4CEA124305E04FEA124C25
:100970004FEA0C4C4CEA0103DFF8448148F8203080
:10098000DFF834C1DCF800C04FEA6C050CE0401C15
:10099000DFF82C8158F820304FEA134C4CEA024C17
:1009A000C14649F820C01A46A842F0DBDFF808C16A
:1009B0009CF800C00CF0010CBCF1000F0CD1DFF86A
:1009C000008158F820C06FF30F0C4FF6FF78C44435
:1009D000DFF8EC9049F820C0DFF8DCC0DCF800C09C
:1009E0000CF1010CDFF8D080C8F800C03CE041EA0F
:1009F0004671DFF8C4C0DCF800C00CF1010C4FEA0E
:100A00006C00002408E0DFF8B88058F820C08C455E
:100A100000D907E0401C641CDFF898C0DCF800C077
:100A20006445F0DB00BFDFF8988058F8202048F8D4
:100A30002010DFF880C0DCF800C00CF1010CDFF8FA
:100A40007480C8F800C0C446DCF800C0ACF10105F1
:100A500008E0401C641CDFF8688058F8203048F833
:100A600020201A46AC42F4DBDFF84CC0DCF800C0B2
:100A70000CF1010C4FEA6C0C4FEA8C02DFF834C029
:100A8000DCF800C002EB8C034FF0000CDFF82C8088
:100A9000C8F804C0C446CCF80820CCF80C20CCF828
:100AA0001030CCF814304FF0000CC8F800C000BF74
:100AB00093E600007C0000107800001000C00340A6
:100AC0000080034010B500242BE0601CC4B211204C
:100AD00024490870012048708870FF20C8700421E4
:100AE000204800F0BBF81F4908710846017805232B
:100AF0000246002000F058FB00201B49087004202B
:100B00001A49087001E0FFF7F9FB1848007804283B
:100B1000F9D016480078032800D003E0032C00DB4E
:100B200000E0D2E700BF01200E49087002204870A3
:100B3000012088700D480078012801D1C87002E0BA
:100B400002200849C8700421064800F087F80549CA
:100B500008710846017805230246012000F024FBB5
:100B600010BD0000200000100C0000100900001053
:100B700010B501200A49087003204870FF208870D2
:100B8000C8700421064800F069F805490871084654
:100B9000017805230246002000F006FB10BD00008E
:100BA0002000001010B5002422484468002C36D0E4
:100BB00021480068401C204908601E48846004F0F9
:100BC000010078B101201D4908601D4800681949DD
:100BD000C1F8100100201B49088010211A48FFF7B6
:100BE000E9FA1CE004F0020080B101201749086016
:100BF0001348203000680F49C1F830010020144923
:100C0000088010211348FFF7D5FA08E004F004002B
:100C100008B100BF03E004F0080000B100BF0548C0
:100C2000C46834B10C480068401C0B490860014896
:100C3000046110BD00000820B0000010B8000010D2
:100C400010010820C000001094030010BC00001028
:100C5000C2000010A4030010B400001010B502463A
:100C60000B460020002104E0545C0444E0B24C1C1C
:100C7000E1B29942F8DBC0F1FF0010BD0820044941
:100C8000086004480078401C024908707047000062
:100C900040C10F402B00001008B50146084800EB8A
:100CA000813210680090009820F00100401C0090F4
:100CB0000098106010680090009800F0010008BDD6
:100CC000004004408248406800F0F80000F007014E
:100CD000002974D1C0100C2871D2DFE800F0060D95
:100CE0002027BB28BCBDACBEC5E22820784988615E
:100CF000FF2078490870E8E077480078012806D19D
:100D00007648007800F0FE007149886003E073487F
:100D100000786F49886028206D498861D5E06F4868
:100D200000786B49886028208861CEE000BF6A485F
:100D30000078E8B96A48006890B16A4800680078AD
:100D40006349886067480068401C6649086028203D
:100D50005F49886162480068401E6149086007E099
:100D600010205B49086028208861012059490870DB
:100D70005948007801282FD15B48007802280DD10E
:100D80005A480068C0F307205149886028208861CC
:100D900055480078401E5449087096E05248007843
:100DA00001280DD151480068C0B249498860282007
:100DB00088614D480078401E4B49087085E083E00B
:100DC0004948007840B908204149886120200860DE
:100DD00000204149087078E03F480078022829D176
:100DE00041480078002825DD3F48007802280DD1D1
:100DF0003E480068C0F30720354988602820886194
:100E000039480078401E384908705EE0364800785E
:100E100001280FD135480068C0B22D4988602820CC
:100E2000886131480078401E2F49087000202A4907
:100E300008704AE049E02A480068012803D80420E5
:100E40002349886102E004202149086028202049C4
:100E500088613AE000BF00BF00BF28201C498861BC
:100E6000FF201C49087030E0194880681D49096856
:100E700008701C480068401C1A490860184800683F
:100E8000401E1749086008460068012803D12C203D
:100E90000F49886104E004200D490860282088611A
:100EA00013E00B4880680F49096808700D48006816
:100EB000401C0C4908601020054908602820886102
:100EC00001200449087000E000BF00BF7047000027
:100ED00000C00140680000106900001054000010BC
:100EE00064000010600000105C000010580000104A
:100EF0004FF4807007490860102006499C39C1F8FA
:100F00009C00402003490860202008608020086081
:100F1000704700009C8009202348006840F48070DE
:100F200021498039C1F880000846D0F8980040F483
:100F30008070C1F898000846D0F8800040F010009A
:100F4000C1F880000846D0F8980040F01000C1F8C1
:100F500098000846D0F8800040F02000C1F88000DA
:100F60000846D0F8980040F02000C1F898000846E4
:100F7000D0F8800040F04000C1F880000846D0F86A
:100F8000980040F04000C1F898000846D0F8800072
:100F900040F08000C1F880000846D0F8980040F08A
:100FA0008000C1F8980070478080092000F01F027F
:100FB000012191404209920002F1E022C2F80011A1
:100FC0007047000010B5002807DACA06140E054A5B
:100FD00000F00F031B1FD45403E0CA06130E024A8D
:100FE000135410BD18ED00E000E400E008B502461F
:100FF000094800EB823108680090009820F0010059
:1010000000900098086008680090009800F00100C7
:1010100080F0010008BD00000040044070B50446A7
:101020000E46052E03D002200C49087070BD0C4DF1
:10103000A0682860207B287104212846FFF70EFE57
:1010400029460979884203D0022004490870EDE757
:101050000348FFF777F900BFE8E700000900001038
:101060007100001070B504460E46052E03D0022014
:101070000C49087070BD0C4DA0682860207B287159
:1010800004212846FFF7EAFD29460979884203D062
:10109000022004490870EDE70348FFF711F900BF8B
:1010A000E8E70000090000106C0000101049C86952
:1010B00000F0010139B10F490968491C0D4A11605E
:1010C00001210B4A116200F0020139B10A49096895
:1010D000491C094A11600221054A116200F004010D
:1010E00021B106490968491C044A11607047000093
:1010F000008008403400001038000010300000105C
:101100001049C86900F0010139B10F490968491C4B
:101110000D4A116001210B4A116200F0020139B140
:101120000A490968491C094A11600221054A1162ED
:1011300000F0040121B106490968491C044A116004
:101140007047000000000340400000104400001001
:101150003C0000101049C86900F0010139B10F4985
:101160000968491C0D4A116001210B4A116200F007
:10117000020139B10A490968491C094A1160022172
:10118000054A116200F0040121B106490968491CB1
:10119000044A11607047000000C00A404C00001073
:1011A00050000010480000102DE9FF4780460F4610
:1011B00015461E460024B94600208DF80D00CDF8D6
:1011C00000908DF80E00082E26DC002E24DD8DF810
:1011D0000C60042E0ADC00BF05E015F8011B01A815
:1011E0000155601C84B2B442F7DB18E0002405E02E
:1011F00015F8011B01A80155601C84B2042CF7DB13
:10120000002405E015F8011B02A80155601C84B2FA
:10121000301FA042F6DC02E000208DF80C00694689
:101220004046FFF7E5F904B0BDE8F08721202E49DC
:10123000086000BF2C48006800F040000028F9D08A
:10124000012029499439086009202849C1F88400FF
:101250000120264980310860AA2024498C31086089
:101260005520086000BF21488830006800F4806085
:101270000028F8D023201D49A431086001201B4913
:10128000C1F8A000AA201949AC31086055201749BF
:10129000C1F8AC0000BF1548A830006800F48060B9
:1012A0000028F8D040F201100F499C39086040F244
:1012B00001200E49C1F8080101200B49A03908603E
:1012C000022009490831086009480849C43108600A
:1012D000881505492831086045F23A00034908603D
:1012E0000020044908607047A0C10F4000C00F40B3
:1012F000DE87280408ED00E001204FF0402108605F
:1013000014480068401C13490860134800780428FA
:101310000DD112480078401C10490870084600782A
:10132000C82804DB0020087003200B4908700C4813
:10133000007804280DD10B480068401C094908605A
:1013400008460068C82804D3002008600320044928
:101350000870704710000010090000100C00001009
:101360000B00001014000010012006490860064917
:101370000870022001218140044A430942F82310E9
:1013800000BF7047008000400800001080E100E0CE
:1013900001200149086070470000094070B500BF96
:1013A00032488068C4B2641004F00704012C4BD0AA
:1013B000022C02D0062C54D120E02C48007D00F0F5
:1013C0000E0080B900BF29490A7829490868411CE4
:1013D000274B196027490A542448007D00F001007A
:1013E0000028F0D109E02148067D00BF1F4806789B
:1013F000007D00F001000028F8D135E01B48007D99
:1014000000F00E00A8B900BF18490A78184908680A
:10141000411C174B196017490A541448007D00F00D
:1014200001000028F0D118460168124800F016FAB1
:1014300009E00E48067D00BF0C480678007D00F0EC
:1014400001000028F8D10FE00848057D05F02000D4
:1014500018B101200849087002E000200649087010
:1014600002E00248067D00BF00BF70BD00C0004022
:101470009400001014010010A800001070B50024A2
:10148000002500BF32488068C4B2641004F007042D
:10149000012C4BD0022C02D0062C54D120E02C4839
:1014A000007D00F00E0080B900BF29490A78294963
:1014B0000868411C274B196027490A542448007DBD
:1014C00000F001000028F0D109E02148067D00BFAE
:1014D0001F480678007D00F001000028F8D135E0B3
:1014E0001B48007D00F00E00A8B900BF18490A781B
:1014F00018490868411C174B196017490A541448C9
:10150000007D00F001000028F0D118460168124863
:1015100000F0D2F909E00E48067D00BF0C480678BD
:10152000007D00F001000028F8D10FE00848057D9B
:1015300005F0200018B101200849087002E00020E1
:101540000649087002E00248067D00BF00BF70BD7A
:10155000000001409800001014030010A9000010C2
:1015600030B500BF2A4B9B68D8B2401000F007008E
:1015700003281FD1264B197D01F09E0323B1254B73
:101580001960234B1A7830BD01F00103002B3CD0C9
:101590001F4B1B78204C214D2D6863551F4B1B683A
:1015A0005B1C1E4C236023461B680F2B2DD1002390
:1015B00023602AE0022811D1154B1C78164B174DD9
:1015C0002D685C55154B1B685B1C144C236023462F
:1015D0001B680F2B19D10023236016E0062806D1C3
:1015E0000C4B1B6843F480730A4C23600DE0012808
:1015F0000BD1074B197D01F020031BB10123084CCF
:10160000237002E00023064C237000BFBBE70000FC
:101610000080094088000010940300109C00001016
:10162000AA00001030B500BF2A4B9B68D8B240100A
:1016300000F0070003281FD1264B197D01F09E03FF
:1016400023B1254B1960234B1A7830BD01F00103FB
:10165000002B3CD01F4B1B78204C214D2D6863552F
:101660001F4B1B685B1C1E4C236023461B680F2B03
:101670002DD1002323602AE0022811D1154B1C78BC
:10168000164B174D2D685C55154B1B685B1C144C95
:10169000236023461B680F2B19D10023236016E01B
:1016A000062806D10C4B1B6843F480730A4C236058
:1016B0000DE001280BD1074B197D01F020031BB170
:1016C0000123084C237002E00023064C237000BF66
:1016D000BBE7000000C009408C000010A40300100C
:1016E000A0000010AB00001030B500BF2B4B9B6872
:1016F000D8B2401000F00700032821D1274B5B69C6
:10170000D9B201F09E032BB1254B1960234B1B6806
:10171000DAB230BD01F00103002B3DD01F4B1B6836
:10172000204C214D2D6863551F4B1B685B1C1E4CC4
:10173000236023461B680F2B2ED1002323602BE050
:10174000022811D1154B1B68164C174D2D68635597
:10175000154B1B685B1C144C236023461B680F2B26
:101760001AD10023236017E0062806D10C4B1B6812
:1017700043F480730A4C23600EE001280CD1074B20
:101780005B69D9B201F020031BB10123074C237020
:1017900002E00023054C237000BFBAE700400A4076
:1017A00090000010B4030010A4000010AC00001062
:1017B0004FF0E021096921F003014FF0E0221161AF
:1017C0001146096941F00401116107490968074A96
:1017D000B1FBF2F00649086009684FF47A72514390
:1017E000044A116070470000C400001040420F001E
:1017F000040000100000001010B50146164B1B68D5
:101800005B1E4FF0E024636100221DE000234FF0D7
:10181000E024A36123461B6943F00103236100BF59
:101820004FF0E023186900F001031BB100F480338E
:10183000002BF5D04FF0E0231B6923F001034FF09C
:10184000E0242361531C9AB28A42DFDB00234FF06D
:10185000E024A36110BD00000000001070B5044634
:101860000D460026052D03D002201249087070BDD8
:1018700004212046FFF7F2F906462079B04203D052
:1018800002200C490870F2E7207801280CD160781A
:10189000012809D1A078012806D1E078FF2803D1DA
:1018A00001200449087002E002200249087000BFCC
:1018B000DDE700000B00001070B504460D46002661
:1018C000052D03D002201149087070BD0421204667
:1018D000FFF7C4F906462079B04203D002200B4935
:1018E0000870F2E7207801280BD16078012808D130
:1018F000A07830B9E078FF2803D1012004490870AE
:1019000002E002200149087000BFDEE70B00001072
:101910002C000010002080F3108800BFFFF786FC29
:10192000FFF746FF1148006840F400400F49C439F2
:10193000C1F8C40000200E49086008620864086607
:101940000B4980310860FEF745FDFFF7E5FA00F02E
:1019500011F84FF4FA60FFF74FFFFFF7B3F8FFF706
:10196000C7FAFFF705F900BFFEE70000C4C00F404B
:101970000080092010B51448006840F002001249A8
:10198000C439C1F8C40002204FF040214860012052
:101990000860002008678860C8600C4800684FF441
:1019A0007A71B0FBF1F04FF040218861032048616B
:1019B0000120FFF7FBFA03210120FFF703FB0120C1
:1019C0004FF04021486010BDC4C00F40C800001057
:1019D0000063000000000010D4000000200100009F
:1019E000D4630000D4000010F40500003C010000A6
:1019F00000000000000000000000000000000000E7
:101A000000000000000000000000000000000000D6
:101A100000000000000000000000000000000000C6
:101A200000000000000000000000000000000000B6
:1062F000000000000000000000000000FFFFFFFFA2
:10630000000000000000000000000000000000008D
:10631000000000000000000000000000000000007D
:10632000000000000000000000000000000000006D
:10633000000000000000000000000000000000005D
:10634000000000000000000000000000000000004D
:10635000000000000000000000000000000000003D
:10636000000000000000000000000000000000002D
:10637000000000000000000000000000000000001D
:10638000000000000000000000000000000000000D
:1063900000000000000000000000000000000000FD
:1063A00000000000000000000101010101000000E8
:1063B00000000000000000000100000001000000DB
:1063C00000000000000E2707008793030087930357
:0463D000006CDC027F
:04000005000000E512
:00000001FF
